:100000000C947D000C9493040C946C040C94A50047
:100010000C94A5000C94A5000C94A5000C94A500CC
:100020000C94A5000C94A5000C94A5000C94A500BC
:100030000C94A5000C94A5000C94A5000C94A500AC
:100040000C9422040C94A5000C94F0030C94CA03A5
:100050000C94A5000C94A5000C94A5000C94A5008C
:100060000C94A5000C94A5000000000800020100FB
:100070000003040700000000000000000000000072
:10008000250028002B0000000000240027002A0083
:10009000040404040404040402020202020203032E
:1000A0000303030301020408102040800102040836
:1000B00010200102040810205E01011F010303014A
:1000C000008A02010A010202010064001E47040BBB
:1000D0000906007C0101060103030100F401060E7C
:1000E0000102020100C20117010102020101960092
:1000F000023E010606010000BA0411241FBECFEF24
:10010000D4E0DEBFCDBF11E0A0E0B1E0E2EAFDE067
:1001100002C005900D92A831B107D9F722E0A8E1FD
:10012000B1E001C01D92A536B207E1F710E0CDE7BE
:10013000D0E004C02197FE010E94C906CC37D10748
:10014000C9F70E941C050C94CF060C94000008957A
:10015000AF92BF92CF92DF92EF92FF920F931F93D5
:10016000CF93DF936C017B018B01040F151FEB0113
:100170005E01AE18BF08C017D10759F06991D601CA
:10018000ED91FC910190F081E02DC6010995892B3C
:1001900079F7C501DF91CF911F910F91FF90EF90FB
:1001A000DF90CF90BF90AF900895FC01538D448DA8
:1001B000252F30E0842F90E0821B930B541710F012
:1001C000CF96089501970895FC01918D828D98171F
:1001D00061F0A28DAE0FBF2FB11D5D968C91928DF7
:1001E0009F5F9F73928F90E008958FEF9FEF089528
:1001F000FC01918D828D981731F0828DE80FF11DF1
:10020000858D90E008958FEF9FEF0895FC01918D0B
:10021000228D892F90E0805C9F4F821B91098F7304
:100220009927089581EB91E00E94060121E0892B36
:1002300009F420E0822F089580E090E0892B29F0D6
:100240000E94120181110C9400000895FC01A48DFC
:10025000A80FB92FB11DA35ABF4F2C91848D90E0E8
:1002600001968F739927848FA689B7892C93A089CB
:10027000B1898C91837080648C93938D848D981355
:1002800006C00288F389E02D80818F7D80830895E8
:10029000EF92FF920F931F93CF93DF93EC0181E0D6
:1002A000888F9B8D8C8D98131AC0E889F98980817D
:1002B00085FF15C09FB7F894EE89FF896083E889B0
:1002C000F98980818370806480839FBF81E090E0A2
:1002D000DF91CF911F910F91FF90EF900895F62E2F
:1002E0000B8D10E00F5F1F4F0F731127E02E8C8DC9
:1002F0008E110CC00FB607FCFACFE889F98980810E
:1003000085FFF5CFCE010E942601F1CFEB8DEC0FDA
:10031000FD2FF11DE35AFF4FF0829FB7F8940B8F2A
:10032000EA89FB8980818062CFCFCF93DF93EC0194
:10033000888D8823B9F0AA89BB89E889F9898C91CD
:1003400085FD03C0808186FD0DC00FB607FCF7CF89
:100350008C9185FFF2CF808185FFEDCFCE010E9489
:100360002601E9CFDF91CF91089590E0FC01E85993
:10037000FF4F2491FC01EC55FF4F3491FC01E057F5
:10038000FF4FE491EE23C9F0222339F0233001F12D
:10039000A8F4213019F1223029F1F0E0EE0FFF1F0F
:1003A000E458FF4FA591B4918FB7F894EC91611187
:1003B00026C030953E233C938FBF08952730A9F087
:1003C0002830C9F0243049F7809180008F7D03C028
:1003D000809180008F7780938000DFCF84B58F7706
:1003E00084BDDBCF84B58F7DFBCF8091B0008F774C
:1003F0008093B000D2CF8091B0008F7DF9CF3E2B9B
:10040000DACF1F93CF93DF93182FD92F80916402F7
:1004100060E0C1E0811102C061E0C0E0809158025B
:100420000E94B50120915C0230915D02129FC001D3
:10043000139F900D11248230910538F0880F991F79
:10044000880F991F05970197F1F76C2F809158023B
:100450000E94B50120915C0230915D02D29FC001E3
:10046000D39F900D11248230910538F0880F991F89
:10047000880F991F05970197F1F7DF91CF911F9191
:1004800008953FB7F8948091AB019091AC01A09191
:10049000AD01B091AE0126B5A89B05C02F3F19F064
:1004A0000196A11DB11D3FBFBA2FA92F982F8827F4
:1004B000BC01CD01620F711D811D911D42E0660FCF
:1004C000771F881F991F4A95D1F708952F923F9261
:1004D0004F925F926F927F928F929F92AF92BF9254
:1004E000CF92DF92EF92FF920F931F93CF93DF9300
:1004F000CDB7DEB765970FB6F894DEBF0FBECDBFA0
:100500000E9441026B017C018091A6019091A7019C
:100510002601481A590A2DEC421620E1520608F429
:10052000DEC08091200190912101A201481B590B4E
:10053000CA0157FF03C0919581959109883C9105A7
:100540000CF0C9C080911E0190911F0101969093FB
:100550001F0180931E01029709F0BDC098EB692E20
:1005600090E0792E01E010E020901C0130901D01F8
:100570003B862A8649E050E0B301CE0101960E94F5
:10058000AC068B816C81681708F4682F70E080914D
:100590002001909121010E94B5069B014091040128
:1005A00050910501649FC001659F900D749F900D4F
:1005B000112464E670E00E94B5068985A1E0B0E0F0
:1005C000882311F0A2E0B0E08D81829FA001839F7B
:1005D000500D11245D874C878E81829F1001839F6F
:1005E000300C11243F862E868F81829FA001839F2D
:1005F000500D1124598B488B8885829F1001839F51
:10060000300C11243B8A2A8AFD01EE0FFF1FE05EA9
:10061000FE4F812C912C54014A855B854150510934
:100620005D8B4C8B8C899D89A817B90708F040C059
:10063000880C991CAA1CBB1C80819181AC012C8464
:100640003D844219530957FF03C051954195510903
:100650004617570770F4428153812E843F84421914
:10066000530957FF03C05195419551094617570744
:10067000E0F048895989841B950B97FF03C0919539
:100680008195910986179707C8F4828193812A88FA
:100690003B888219930997FF03C091958195910931
:1006A0008617970758F4689480F812963496BACF54
:1006B0004A855B854830510508F053C00F5F1F4FD6
:1006C00059E0650E711C0830110509F04DCF1092EC
:1006D0001F0110921E0110921D0110921C018091A9
:1006E0001C0190911D018334910540F010921D0171
:1006F00010921C0110921F0110921E0180911C018A
:1007000090911D019C012F5F3F4F30931D0120935D
:100710001C01880F991FFC01E05EFE4F5182408250
:10072000C092A601D092A701E092A801F092A9017F
:1007300065960FB6F894DEBF0FBECDBFDF91CF91A7
:100740001F910F91FF90EF90DF90CF90BF90AF90EF
:100750009F908F907F906F905F904F903F902F90E1
:1007600008958092520290925302A0925402B09245
:1007700055022C883D88369427943092B0012092FF
:10078000AF0130931B0120931A01109319010093BC
:1007900018019DCF1F920F920FB60F9211242F9325
:1007A0003F934F935F936F937F938F939F93AF93F9
:1007B000BF93EF93FF9381EB91E00E942601FF919D
:1007C000EF91BF91AF919F918F917F916F915F91C9
:1007D0004F913F912F910F900FBE0F901F90189542
:1007E0001F920F920FB60F9211242F938F939F9306
:1007F000EF93FF93E091C101F091C2018081E091FC
:10080000C701F091C80182FD1BC090818091CA018F
:100810008F5F8F732091CB01821741F0E091CA0165
:10082000F0E0EF54FE4F958F8093CA01FF91EF9156
:100830009F918F912F910F900FBE0F901F90189541
:100840008081F4CF1F920F920FB60F9211242F9335
:100850003F938F939F93AF93BF9380914E0290915C
:100860004F02A0915002B09151023091AA0123E0B1
:10087000230F2D3758F50196A11DB11D2093AA0114
:1008800080934E0290934F02A0935002B093510276
:100890008091AB019091AC01A091AD01B091AE01FE
:1008A0000196A11DB11D8093AB019093AC01A09363
:1008B000AD01B093AE01BF91AF919F918F913F91E8
:1008C0002F910F900FBE0F901F90189526E8230FC1
:1008D0000296A11DB11DD2CF1F920F920FB60F929B
:1008E00011242F933F934F935F936F937F938F9335
:1008F0009F93AF93BF93EF93FF93E0910201F09129
:1009000003010995FF91EF91BF91AF919F918F9155
:100910007F916F915F914F913F912F910F900FBEFB
:100920000F901F9018951F920F920FB60F921124DF
:100930002F933F934F935F936F937F938F939F93E7
:10094000AF93BF93EF93FF93E0910001F09101010A
:100950000995FF91EF91BF91AF919F918F917F91F9
:100960006F915F914F913F912F910F900FBE0F901C
:100970001F9018950F931F93CF93DF93E1EBF1E056
:100980001382128288EE93E0A0E0B0E08483958326
:10099000A683B7838AE091E09183808385EC90E021
:1009A0009587848784EC90E09787868780EC90E039
:1009B000918B808B81EC90E0938B828B82EC90E02A
:1009C000958B848B86EC90E0978B868B118E128EA4
:1009D000138E148EC6E5D2E00FEF1FEF1B830A8340
:1009E0008AE090E09D838C8349E050E068EB70E002
:1009F0008CE592E00E94AC06198308838CE390E0BA
:100A000090930501809304011092520210925302B8
:100A100010925402109255028FB7F89440914E02F2
:100A200050914F0260915002709151028FBFDF913F
:100A3000CF911F910F910895789484B5826084BD01
:100A400084B5816084BD85B5826085BD85B58160D2
:100A500085BD80916E00816080936E001092810050
:100A6000809181008260809381008091810081600B
:100A700080938100809180008160809380008091CC
:100A8000B10084608093B1008091B0008160809358
:100A9000B00080917A00846080937A0080917A001F
:100AA000826080937A0080917A00816080937A00DE
:100AB00080917A00806880937A001092C100E7EA02
:100AC000F0E02491E3E9F0E084918823C1F090E024
:100AD000880F991FFC01EA57FF4FC591D491FC0183
:100AE000E458FF4FA591B4919FB7F8948881E22F05
:100AF000E0958E2388838C91E823EC939FBFE0914F
:100B0000C101F091C20182E08083E091BD01F091CA
:100B1000BE011082E091BF01F091C0018FEC808393
:100B20001092C901E091C501F091C60186E0808371
:100B3000E091C301F091C401808180618083E091E4
:100B4000C301F091C401808188608083E091C3017A
:100B5000F091C401808180688083E091C301F091AD
:100B6000C40180818F7D80838AE090E09093590258
:100B700080935802EEEAF0E02491EAE9F0E08491F3
:100B8000882399F090E0880F991FFC01EA57FF4FE6
:100B9000A591B491FC01E458FF4F859194918FB7D2
:100BA000F894EC91E22BEC938FBF49E050E065EEB6
:100BB00070E08CE592E00E94AC0685E090E09093B6
:100BC0005B0280935A02812C912C5401839440E063
:100BD000242E40E0342E80915802909159020196C3
:100BE00009F481C0C0915602D0915702CF3FDC0773
:100BF000B1F0C23070F4FE01FF27C13009F43FC0EC
:100C0000E898EE0FFF1FE050FF4F87EA90E09183D6
:100C100080832FEF3FEF3093570220935602F12C41
:100C2000E12C80915A0290915B02E816F90674F566
:100C30000BE110E0D501C401002E04C0880F991FFC
:100C4000AA1FBB1F0A94D2F785729E7BAE72B97041
:100C5000892B8A2B8B2BA9F08091620290916302E1
:100C60000E9401020150110928F780915E029091C3
:100C70005F020E9401028FEFE81AF80AD2CFE998CA
:100C8000C0CF8091600290916102EACF60E08091D4
:100C900058020E94B501CF3FDC0729F1D0935702DB
:100CA000C0935602109252021092530210925402B4
:100CB000109255021092B0011092AF018C2FC230E9
:100CC00090F4DD27CC0FDD1FC050DF4F26E632E069
:100CD000398328838130C1F1809169008C7F8160E4
:100CE00080936900E89A0E9441026B017C0188EEC2
:100CF000482E83E0582E612C712C0E9441026C1901
:100D00007D098E099F09683E734081059105A8F30E
:100D100031E0431A51086108710888EEC80E83E07B
:100D2000D81EE11CF11C411451046104710429F71F
:100D30002114310409F44FCF0E941201882309F4D1
:100D40004ACF0E94000047CF80916900837F846072
:100D500080936900E99AC7CFFB01DC0102C00590CE
:100D60000D9241505040D8F70895AA1BBB1B51E18A
:100D700007C0AA1FBB1FA617B70710F0A61BB70B0B
:100D8000881F991F5A95A9F780959095BC01CD01B0
:100D90000895EE0FFF1F0590F491E02D0994F8944B
:020DA000FFCF83
:100DA200A700A7003C00000000004801A800D500F1
:080DB20095010601E400F800C0
:103800000C94341C0C94511C0C94511C0C94511CA1
:103810000C94511C0C94511C0C94511C0C94511C74
:103820000C94511C0C94511C0C94511C0C94511C64
:103830000C94511C0C94511C0C94511C0C94511C54
:103840000C94511C0C94511C0C94511C0C94511C44
:103850000C94511C0C94511C0C94511C0C94511C34
:103860000C94511C0C94511C11241FBECFEFD4E0BA
:10387000DEBFCDBF11E0A0E0B1E0E4EAFFE302C0AB
:1038800005900D92A230B107D9F712E0A2E0B1E0A5
:1038900001C01D92AD30B107E1F70E94361D0C94B6
:1038A000D01F0C94001C982F9595959595959595FE
:1038B000905D8F708A307CF0282F295A8091C0004B
:1038C00085FFFCCF9093C6008091C00085FFFCCFA0
:1038D0002093C6000895282F205DF0CF982F809167
:1038E000C00085FFFCCF9093C6000895EF92FF9231
:1038F0000F931F93EE24FF2487018091C00087FD62
:1039000017C00894E11CF11C011D111D81E4E8168B
:1039100082E4F8068FE0080780E0180770F3E09172
:103920000401F091050109958091C00087FFE9CF5E
:103930008091C6001F910F91FF90EF9008950E9413
:10394000761C982F8091C00085FFFCCF9093C60015
:1039500091362CF490330CF09053892F089597559D
:10396000892F08951F930E949F1C182F0E949F1C4F
:103970001295107F810F1F910895882351F0982F81
:1039800091508091C00087FFFCCF8091C6009923A1
:10399000B9F708951F93182F0E94761C803249F0C2
:1039A000809103018F5F809303018530C1F01F91E7
:1039B00008958091C00085FFFCCF84E18093C6000C
:1039C0008091C00085FFFCCF1093C6008091C0009D
:1039D00085FFFCCF80E18093C6001F910895E091A0
:1039E0000401F091050109951F9108950E94761C2C
:1039F000803241F0809103018F5F80930301853015
:103A000081F008958091C00085FFFCCF84E1809310
:103A1000C6008091C00085FFFCCF80E18093C60086
:103A20000895E0910401F09105010995089510921F
:103A30000A028823D1F090E040E951E02D9A28EE67
:103A400033E0FA013197F1F721503040D1F72D984A
:103A500028EE33E0FA013197F1F721503040D1F7E9
:103A60009F5F981758F380930A0208953F924F92F0
:103A70005F926F927F928F929F92AF92BF92CF92FE
:103A8000DF92EF92FF920F931F93CF93DF9300008B
:103A900083E38093C4001092C50088E18093C10045
:103AA00086E08093C2005098589A259A81E00E943F
:103AB000171D44E1F42E3EE1E32E24E9D22E96E0D8
:103AC000C92E80E1B82EAA24A39401E4902E16E515
:103AD000812EB2E57B2EA0E26A2EF9E45F2EE3E5AB
:103AE0004E2E70E5372E0E94761C8033B1F1813363
:103AF00009F441C0803409F479C0813409F48CC0E0
:103B0000823471F1853409F47BC0803531F182351E
:103B100021F1813511F1853509F48DC0863509F41F
:103B20009DC0843609F4AEC0843709F41BC18537C3
:103B300009F485C1863709F47AC0809103018F5F4B
:103B400080930301853079F6E0910401F09105013D
:103B500009950E94761C803351F60E94F61CC3CF53
:103B600093E18091C00087FFFCCF8091C60099232C
:103B7000A1F39150F6CF0E94761C8032F1F680912D
:103B8000C00085FFFCCFF092C6008091C00085FF89
:103B9000FCCF9092C6008091C00085FFFCCF809240
:103BA000C6008091C00085FFFCCF7092C600809156
:103BB000C00085FFFCCF6092C6008091C00085FFE9
:103BC000FCCF5092C6008091C00085FFFCCF409290
:103BD000C6008091C00085FFFCCF3092C600809166
:103BE000C00085FFFCCFB092C6007DCF0E94761C3E
:103BF000863808F4B2CF0E94761C0E94F61C73CF60
:103C000094E08091C00087FFFCCF8091C60099238B
:103C100009F4A3CF9150F5CF0E94761C8038D1F0E3
:103C2000813861F1823809F499C0883979F080E0EF
:103C30000E94CA1C58CF0E94761C809306010E94E5
:103C4000761C809307010E94F61C4DCF83E00E94F2
:103C5000CA1C49CF82E00E94CA1C45CF0E94761C34
:103C6000803309F486C192E08091C00087FFFCCFC9
:103C70008091C6009923D9F29150F6CF81E00E943D
:103C8000CA1C31CF0E94761C809309020E94761CC8
:103C90008093080280910C028E7F80930C020E9418
:103CA000761C853429F480910C02816080930C028B
:103CB0008091080290910902892B89F000E010E0C0
:103CC0000E94761CF801E85FFE4F80830F5F1F4F54
:103CD00080910802909109020817190788F30E9441
:103CE000761C803209F029CF80910C0280FFD1C070
:103CF0004091060150910701440F551F5093070151
:103D000040930601A0910802B09109021097C9F0F2
:103D1000E8E0F1E09A01BD016E0F7F1FF999FECF37
:103D200032BD21BD819180BDFA9AF99A2F5F3F4F34
:103D3000E617F70799F74A0F5B1F50930701409367
:103D400006018091C00085FFFCCFF092C6008091F3
:103D5000C00085FFFCCFB092C600C5CE80E10E94B6
:103D6000CA1CC1CE0E94761C809309020E94761C58
:103D7000809308028091060190910701880F991F96
:103D800090930701809306010E94761C853409F404
:103D90007AC080910C028E7F80930C020E94761C68
:103DA000803209F0A0CE8091C00085FFFCCFF09258
:103DB000C600A0910802B09109021097B9F1809154
:103DC0000C02182F1170082F0270E0910601F0917B
:103DD00007019F012F5F3F4FB90140E050E01123E1
:103DE000B1F4002339F494918091C00085FFFCCF99
:103DF0009093C6004F5F5F4FCB010196F9014A17C0
:103E00005B0780F4BC012F5F3F4F112351F3F999F9
:103E1000FECFF2BDE1BDF89A90B58091C00085FF5C
:103E2000FCCFE6CF70930701609306018091C0003C
:103E300085FDD9CE8091C00085FFF8CFD4CE0E94F9
:103E4000761C803209F079CE8091C00085FFFCCFCE
:103E5000F092C6008091C00085FFFCCFE092C600C2
:103E60008091C00085FFFCCFD092C6008091C00039
:103E700085FFFCCFC092C6008091C00085FFFCCFBB
:103E8000B092C60030CE80910C02816080930C020B
:103E900085CF809107018823880F880B8A21809322
:103EA0000B028091060190910701880F991F909352
:103EB0000701809306018091080280FF09C080916C
:103EC00008029091090201969093090280930802DA
:103ED000F894F999FECF1127E0910601F0910701BE
:103EE000C8E0D1E08091080290910902103091F46D
:103EF0000091570001700130D9F303E0009357009F
:103F0000E8950091570001700130D9F301E1009369
:103F10005700E89509901990009157000170013001
:103F2000D9F301E000935700E8951395103498F009
:103F300011270091570001700130D9F305E000937B
:103F40005700E8950091570001700130D9F301E165
:103F500000935700E8953296029709F0C7CF1030CA
:103F600011F00296E5CF11248091C00085FFE9CEC3
:103F7000ECCE0E94761C0E94761C182F0E94761CA4
:103F8000112351F0113021F086E00E94CA1CABCD04
:103F900084E90E94CA1CA7CD8EE10E94CA1CA3CD51
:043FA000F894FFCFC3
:023FA40080009B
:0400000300003800C1
:00000001FF
